{
  "_format": "hh-sol-artifact-1",
  "contractName": "PuggyCoin",
  "sourceName": "contracts/token/ERC-20/PuggyToken.sol",
  "abi": [
    {
      "inputs": [],
      "stateMutability": "nonpayable",
      "type": "constructor"
    },
    {
      "anonymous": false,
      "inputs": [
        {
          "indexed": true,
          "internalType": "address",
          "name": "owner",
          "type": "address"
        },
        {
          "indexed": true,
          "internalType": "address",
          "name": "spender",
          "type": "address"
        },
        {
          "indexed": false,
          "internalType": "uint256",
          "name": "value",
          "type": "uint256"
        }
      ],
      "name": "Approval",
      "type": "event"
    },
    {
      "anonymous": false,
      "inputs": [
        {
          "indexed": true,
          "internalType": "address",
          "name": "previousOwner",
          "type": "address"
        },
        {
          "indexed": true,
          "internalType": "address",
          "name": "newOwner",
          "type": "address"
        }
      ],
      "name": "OwnershipTransferred",
      "type": "event"
    },
    {
      "anonymous": false,
      "inputs": [
        {
          "indexed": false,
          "internalType": "address",
          "name": "account",
          "type": "address"
        }
      ],
      "name": "Paused",
      "type": "event"
    },
    {
      "anonymous": false,
      "inputs": [
        {
          "indexed": true,
          "internalType": "address",
          "name": "from",
          "type": "address"
        },
        {
          "indexed": true,
          "internalType": "address",
          "name": "to",
          "type": "address"
        },
        {
          "indexed": false,
          "internalType": "uint256",
          "name": "value",
          "type": "uint256"
        }
      ],
      "name": "Transfer",
      "type": "event"
    },
    {
      "anonymous": false,
      "inputs": [
        {
          "indexed": false,
          "internalType": "address",
          "name": "account",
          "type": "address"
        }
      ],
      "name": "Unpaused",
      "type": "event"
    },
    {
      "anonymous": false,
      "inputs": [
        {
          "indexed": false,
          "internalType": "address",
          "name": "pauseaddress",
          "type": "address"
        },
        {
          "indexed": false,
          "internalType": "bool",
          "name": "bPaused",
          "type": "bool"
        }
      ],
      "name": "addresspause",
      "type": "event"
    },
    {
      "anonymous": false,
      "inputs": [
        {
          "indexed": false,
          "internalType": "address",
          "name": "pauseaddress",
          "type": "address"
        },
        {
          "indexed": false,
          "internalType": "bool",
          "name": "bUnPaused",
          "type": "bool"
        }
      ],
      "name": "addressunpause",
      "type": "event"
    },
    {
      "inputs": [
        {
          "internalType": "address",
          "name": "_pauseaddress",
          "type": "address"
        }
      ],
      "name": "addresspaused",
      "outputs": [
        {
          "internalType": "bool",
          "name": "",
          "type": "bool"
        }
      ],
      "stateMutability": "view",
      "type": "function"
    },
    {
      "inputs": [
        {
          "internalType": "address",
          "name": "_pauseaddress",
          "type": "address"
        }
      ],
      "name": "addrpause",
      "outputs": [],
      "stateMutability": "nonpayable",
      "type": "function"
    },
    {
      "inputs": [
        {
          "internalType": "address",
          "name": "_pauseaddress",
          "type": "address"
        }
      ],
      "name": "addrunpause",
      "outputs": [],
      "stateMutability": "nonpayable",
      "type": "function"
    },
    {
      "inputs": [
        {
          "internalType": "address",
          "name": "owner",
          "type": "address"
        },
        {
          "internalType": "address",
          "name": "spender",
          "type": "address"
        }
      ],
      "name": "allowance",
      "outputs": [
        {
          "internalType": "uint256",
          "name": "",
          "type": "uint256"
        }
      ],
      "stateMutability": "view",
      "type": "function"
    },
    {
      "inputs": [
        {
          "internalType": "address",
          "name": "spender",
          "type": "address"
        },
        {
          "internalType": "uint256",
          "name": "amount",
          "type": "uint256"
        }
      ],
      "name": "approve",
      "outputs": [
        {
          "internalType": "bool",
          "name": "",
          "type": "bool"
        }
      ],
      "stateMutability": "nonpayable",
      "type": "function"
    },
    {
      "inputs": [
        {
          "internalType": "address",
          "name": "account",
          "type": "address"
        }
      ],
      "name": "balanceOf",
      "outputs": [
        {
          "internalType": "uint256",
          "name": "",
          "type": "uint256"
        }
      ],
      "stateMutability": "view",
      "type": "function"
    },
    {
      "inputs": [
        {
          "internalType": "uint256",
          "name": "amount",
          "type": "uint256"
        }
      ],
      "name": "burn",
      "outputs": [],
      "stateMutability": "nonpayable",
      "type": "function"
    },
    {
      "inputs": [
        {
          "internalType": "address",
          "name": "account",
          "type": "address"
        },
        {
          "internalType": "uint256",
          "name": "amount",
          "type": "uint256"
        }
      ],
      "name": "burnFrom",
      "outputs": [],
      "stateMutability": "nonpayable",
      "type": "function"
    },
    {
      "inputs": [],
      "name": "decimals",
      "outputs": [
        {
          "internalType": "uint8",
          "name": "",
          "type": "uint8"
        }
      ],
      "stateMutability": "view",
      "type": "function"
    },
    {
      "inputs": [
        {
          "internalType": "address",
          "name": "spender",
          "type": "address"
        },
        {
          "internalType": "uint256",
          "name": "subtractedValue",
          "type": "uint256"
        }
      ],
      "name": "decreaseAllowance",
      "outputs": [
        {
          "internalType": "bool",
          "name": "",
          "type": "bool"
        }
      ],
      "stateMutability": "nonpayable",
      "type": "function"
    },
    {
      "inputs": [
        {
          "internalType": "address",
          "name": "spender",
          "type": "address"
        },
        {
          "internalType": "uint256",
          "name": "addedValue",
          "type": "uint256"
        }
      ],
      "name": "increaseAllowance",
      "outputs": [
        {
          "internalType": "bool",
          "name": "",
          "type": "bool"
        }
      ],
      "stateMutability": "nonpayable",
      "type": "function"
    },
    {
      "inputs": [],
      "name": "name",
      "outputs": [
        {
          "internalType": "string",
          "name": "",
          "type": "string"
        }
      ],
      "stateMutability": "view",
      "type": "function"
    },
    {
      "inputs": [],
      "name": "owner",
      "outputs": [
        {
          "internalType": "address",
          "name": "",
          "type": "address"
        }
      ],
      "stateMutability": "view",
      "type": "function"
    },
    {
      "inputs": [],
      "name": "pause",
      "outputs": [],
      "stateMutability": "nonpayable",
      "type": "function"
    },
    {
      "inputs": [],
      "name": "paused",
      "outputs": [
        {
          "internalType": "bool",
          "name": "",
          "type": "bool"
        }
      ],
      "stateMutability": "view",
      "type": "function"
    },
    {
      "inputs": [],
      "name": "renounceOwnership",
      "outputs": [],
      "stateMutability": "nonpayable",
      "type": "function"
    },
    {
      "inputs": [],
      "name": "symbol",
      "outputs": [
        {
          "internalType": "string",
          "name": "",
          "type": "string"
        }
      ],
      "stateMutability": "view",
      "type": "function"
    },
    {
      "inputs": [],
      "name": "totalSupply",
      "outputs": [
        {
          "internalType": "uint256",
          "name": "",
          "type": "uint256"
        }
      ],
      "stateMutability": "view",
      "type": "function"
    },
    {
      "inputs": [
        {
          "internalType": "address",
          "name": "to",
          "type": "address"
        },
        {
          "internalType": "uint256",
          "name": "amount",
          "type": "uint256"
        }
      ],
      "name": "transfer",
      "outputs": [
        {
          "internalType": "bool",
          "name": "",
          "type": "bool"
        }
      ],
      "stateMutability": "nonpayable",
      "type": "function"
    },
    {
      "inputs": [
        {
          "internalType": "address",
          "name": "from",
          "type": "address"
        },
        {
          "internalType": "address",
          "name": "to",
          "type": "address"
        },
        {
          "internalType": "uint256",
          "name": "amount",
          "type": "uint256"
        }
      ],
      "name": "transferFrom",
      "outputs": [
        {
          "internalType": "bool",
          "name": "",
          "type": "bool"
        }
      ],
      "stateMutability": "nonpayable",
      "type": "function"
    },
    {
      "inputs": [
        {
          "internalType": "address",
          "name": "newOwner",
          "type": "address"
        }
      ],
      "name": "transferOwnership",
      "outputs": [],
      "stateMutability": "nonpayable",
      "type": "function"
    },
    {
      "inputs": [],
      "name": "unpaused",
      "outputs": [],
      "stateMutability": "nonpayable",
      "type": "function"
    }
  ],
  "bytecode": "0x60806040523480156200001157600080fd5b506040518060400160405280600a815260200169282aa3a3ac9021b7b4b760b11b81525060405180604001604052806005815260200164505547475960d81b815250816003908162000064919062000394565b50600462000073828262000394565b505050620000906200008a620000cd60201b60201c565b620000d1565b6005805460ff60a01b19169055620000c733620000b06012600a62000575565b620000c1906414b230ce386200058d565b62000123565b620005bd565b3390565b600580546001600160a01b038381166001600160a01b0319831681179093556040519116919082907f8be0079c531659141344cd1fd0a4f28419497f9722a3daafe3b4186f6b6457e090600090a35050565b6001600160a01b0382166200017f5760405162461bcd60e51b815260206004820152601f60248201527f45524332303a206d696e7420746f20746865207a65726f20616464726573730060448201526064015b60405180910390fd5b6200018d60008383620001f8565b8060026000828254620001a19190620005a7565b90915550506001600160a01b038216600081815260208181526040808320805486019055518481527fddf252ad1be2c89b69c2b068fc378daa952ba7f163c4a11628f55a4df523b3ef910160405180910390a35050565b6200020262000298565b8262000226816001600160a01b031660009081526006602052604090205460ff1690565b15620002755760405162461bcd60e51b815260206004820152601d60248201527f50756767795061757361626c653a206164647265737320706175736564000000604482015260640162000176565b6200028d8484846200029360201b620005b71760201c565b50505050565b505050565b620002ac600554600160a01b900460ff1690565b15620002ee5760405162461bcd60e51b815260206004820152601060248201526f14185d5cd8589b194e881c185d5cd95960821b604482015260640162000176565b565b634e487b7160e01b600052604160045260246000fd5b600181811c908216806200031b57607f821691505b6020821081036200033c57634e487b7160e01b600052602260045260246000fd5b50919050565b601f8211156200029357600081815260208120601f850160051c810160208610156200036b5750805b601f850160051c820191505b818110156200038c5782815560010162000377565b505050505050565b81516001600160401b03811115620003b057620003b0620002f0565b620003c881620003c1845462000306565b8462000342565b602080601f831160018114620004005760008415620003e75750858301515b600019600386901b1c1916600185901b1785556200038c565b600085815260208120601f198616915b82811015620004315788860151825594840194600190910190840162000410565b5085821015620004505787850151600019600388901b60f8161c191681555b5050505050600190811b01905550565b634e487b7160e01b600052601160045260246000fd5b600181815b80851115620004b75781600019048211156200049b576200049b62000460565b80851615620004a957918102915b93841c93908002906200047b565b509250929050565b600082620004d0575060016200056f565b81620004df575060006200056f565b8160018114620004f85760028114620005035762000523565b60019150506200056f565b60ff84111562000517576200051762000460565b50506001821b6200056f565b5060208310610133831016604e8410600b841016171562000548575081810a6200056f565b62000554838362000476565b80600019048211156200056b576200056b62000460565b0290505b92915050565b60006200058660ff841683620004bf565b9392505050565b80820281158282048414176200056f576200056f62000460565b808201808211156200056f576200056f62000460565b61101b80620005cd6000396000f3fe608060405234801561001057600080fd5b50600436106101425760003560e01c8063715018a6116100b8578063a457c2d71161007c578063a457c2d7146102a4578063a9059cbb146102b7578063b0b62f5a146102ca578063bc6be5d8146102d2578063dd62ed3e146102e5578063f2fde38b146102f857600080fd5b8063715018a61461025e57806379cc6790146102665780638456cb59146102795780638da5cb5b1461028157806395d89b411461029c57600080fd5b806323b872dd1161010a57806323b872dd146101db578063313ce567146101ee57806339509351146101fd57806342966c68146102105780635c975abb1461022357806370a082311461023557600080fd5b806306fdde0314610147578063095ea7b314610165578063099bef3414610188578063104498c01461019d57806318160ddd146101c9575b600080fd5b61014f61030b565b60405161015c9190610e4c565b60405180910390f35b610178610173366004610eb6565b61039d565b604051901515815260200161015c565b61019b610196366004610ee0565b6103b7565b005b6101786101ab366004610ee0565b6001600160a01b031660009081526006602052604090205460ff1690565b6002545b60405190815260200161015c565b6101786101e9366004610f02565b6103cb565b6040516012815260200161015c565b61017861020b366004610eb6565b6103ef565b61019b61021e366004610f3e565b610411565b600554600160a01b900460ff16610178565b6101cd610243366004610ee0565b6001600160a01b031660009081526020819052604090205490565b61019b61041b565b61019b610274366004610eb6565b61042f565b61019b610448565b6005546040516001600160a01b03909116815260200161015c565b61014f610458565b6101786102b2366004610eb6565b610467565b6101786102c5366004610eb6565b6104e7565b61019b6104f5565b61019b6102e0366004610ee0565b610505565b6101cd6102f3366004610f57565b610516565b61019b610306366004610ee0565b610541565b60606003805461031a90610f8a565b80601f016020809104026020016040519081016040528092919081815260200182805461034690610f8a565b80156103935780601f1061036857610100808354040283529160200191610393565b820191906000526020600020905b81548152906001019060200180831161037657829003601f168201915b5050505050905090565b6000336103ab8185856105bc565b60019150505b92915050565b6103bf6106e0565b6103c88161073a565b50565b6000336103d9858285610812565b6103e485858561088c565b506001949350505050565b6000336103ab8185856104028383610516565b61040c9190610fc4565b6105bc565b6103c83382610a3b565b6104236106e0565b61042d6000610b79565b565b61043a823383610812565b6104448282610a3b565b5050565b6104506106e0565b61042d610bcb565b60606004805461031a90610f8a565b600033816104758286610516565b9050838110156104da5760405162461bcd60e51b815260206004820152602560248201527f45524332303a2064656372656173656420616c6c6f77616e63652062656c6f77604482015264207a65726f60d81b60648201526084015b60405180910390fd5b6103e482868684036105bc565b6000336103ab81858561088c565b6104fd6106e0565b61042d610c2b565b61050d6106e0565b6103c881610c67565b6001600160a01b03918216600090815260016020908152604080832093909416825291909152205490565b6105496106e0565b6001600160a01b0381166105ae5760405162461bcd60e51b815260206004820152602660248201527f4f776e61626c653a206e6577206f776e657220697320746865207a65726f206160448201526564647265737360d01b60648201526084016104d1565b6103c881610b79565b505050565b6001600160a01b03831661061e5760405162461bcd60e51b8152602060048201526024808201527f45524332303a20617070726f76652066726f6d20746865207a65726f206164646044820152637265737360e01b60648201526084016104d1565b6001600160a01b03821661067f5760405162461bcd60e51b815260206004820152602260248201527f45524332303a20617070726f766520746f20746865207a65726f206164647265604482015261737360f01b60648201526084016104d1565b6001600160a01b0383811660008181526001602090815260408083209487168084529482529182902085905590518481527f8c5be1e5ebec7d5bd14f71427d1e84f3dd0314c0f7b2291e5b200ac8c7c3b925910160405180910390a3505050565b6005546001600160a01b0316331461042d5760405162461bcd60e51b815260206004820181905260248201527f4f776e61626c653a2063616c6c6572206973206e6f7420746865206f776e657260448201526064016104d1565b8061075d816001600160a01b031660009081526006602052604090205460ff1690565b6107b35760405162461bcd60e51b815260206004820152602160248201527f50756767795061757361626c653a2061646472657373206e6f742070617573656044820152601960fa1b60648201526084016104d1565b6001600160a01b0382166000818152600660209081526040808320805460ff191690558051938452908301919091527f30a9f7ac5f93e3df8d192e6c0137d746b3dec7c691aecb77205e2aa60a48021191015b60405180910390a15050565b600061081e8484610516565b9050600019811461088657818110156108795760405162461bcd60e51b815260206004820152601d60248201527f45524332303a20696e73756666696369656e7420616c6c6f77616e636500000060448201526064016104d1565b61088684848484036105bc565b50505050565b6001600160a01b0383166108f05760405162461bcd60e51b815260206004820152602560248201527f45524332303a207472616e736665722066726f6d20746865207a65726f206164604482015264647265737360d81b60648201526084016104d1565b6001600160a01b0382166109525760405162461bcd60e51b815260206004820152602360248201527f45524332303a207472616e7366657220746f20746865207a65726f206164647260448201526265737360e81b60648201526084016104d1565b61095d838383610d32565b6001600160a01b038316600090815260208190526040902054818110156109d55760405162461bcd60e51b815260206004820152602660248201527f45524332303a207472616e7366657220616d6f756e7420657863656564732062604482015265616c616e636560d01b60648201526084016104d1565b6001600160a01b03848116600081815260208181526040808320878703905593871680835291849020805487019055925185815290927fddf252ad1be2c89b69c2b068fc378daa952ba7f163c4a11628f55a4df523b3ef910160405180910390a3610886565b6001600160a01b038216610a9b5760405162461bcd60e51b815260206004820152602160248201527f45524332303a206275726e2066726f6d20746865207a65726f206164647265736044820152607360f81b60648201526084016104d1565b610aa782600083610d32565b6001600160a01b03821660009081526020819052604090205481811015610b1b5760405162461bcd60e51b815260206004820152602260248201527f45524332303a206275726e20616d6f756e7420657863656564732062616c616e604482015261636560f01b60648201526084016104d1565b6001600160a01b0383166000818152602081815260408083208686039055600280548790039055518581529192917fddf252ad1be2c89b69c2b068fc378daa952ba7f163c4a11628f55a4df523b3ef910160405180910390a3505050565b600580546001600160a01b038381166001600160a01b0319831681179093556040519116919082907f8be0079c531659141344cd1fd0a4f28419497f9722a3daafe3b4186f6b6457e090600090a35050565b610bd3610daf565b6005805460ff60a01b1916600160a01b1790557f62e78cea01bee320cd4e420270b5ea74000d11b0c9f74754ebdbfc544b05a258610c0e3390565b6040516001600160a01b03909116815260200160405180910390a1565b610c33610dfc565b6005805460ff60a01b191690557f5db9ee0a495bf2e6ff9c91a7834c1ba4fdd244a5e8aa4e537bd38aeae4b073aa33610c0e565b80610c8a816001600160a01b031660009081526006602052604090205460ff1690565b15610cd75760405162461bcd60e51b815260206004820152601d60248201527f50756767795061757361626c653a20616464726573732070617573656400000060448201526064016104d1565b6001600160a01b038216600081815260066020908152604091829020805460ff191660019081179091558251938452908301527fe86f275281b756118b4c4d7a0093ceb369ef098ef1e3dda9af9cc8d20b8c1e329101610806565b610d3a610daf565b82610d5d816001600160a01b031660009081526006602052604090205460ff1690565b15610daa5760405162461bcd60e51b815260206004820152601d60248201527f50756767795061757361626c653a20616464726573732070617573656400000060448201526064016104d1565b610886565b600554600160a01b900460ff161561042d5760405162461bcd60e51b815260206004820152601060248201526f14185d5cd8589b194e881c185d5cd95960821b60448201526064016104d1565b600554600160a01b900460ff1661042d5760405162461bcd60e51b815260206004820152601460248201527314185d5cd8589b194e881b9bdd081c185d5cd95960621b60448201526064016104d1565b600060208083528351808285015260005b81811015610e7957858101830151858201604001528201610e5d565b506000604082860101526040601f19601f8301168501019250505092915050565b80356001600160a01b0381168114610eb157600080fd5b919050565b60008060408385031215610ec957600080fd5b610ed283610e9a565b946020939093013593505050565b600060208284031215610ef257600080fd5b610efb82610e9a565b9392505050565b600080600060608486031215610f1757600080fd5b610f2084610e9a565b9250610f2e60208501610e9a565b9150604084013590509250925092565b600060208284031215610f5057600080fd5b5035919050565b60008060408385031215610f6a57600080fd5b610f7383610e9a565b9150610f8160208401610e9a565b90509250929050565b600181811c90821680610f9e57607f821691505b602082108103610fbe57634e487b7160e01b600052602260045260246000fd5b50919050565b808201808211156103b157634e487b7160e01b600052601160045260246000fdfea2646970667358221220be54dc1ecaa9ce97ea4caffd18ce8c4ae01f004ec1ea5450339b6a62bd07c3d064736f6c63430008110033",
  "linkReferences": {},
  "deployedLinkReferences": {}
}