{
  "_format": "hh-sol-artifact-1",
  "contractName": "PUGGYStaking",
  "sourceName": "contracts/puggy/PUGGYStaking.sol",
  "abi": [
    {
      "inputs": [
        {
          "internalType": "contract IERC20",
          "name": "_token",
          "type": "address"
        }
      ],
      "stateMutability": "nonpayable",
      "type": "constructor"
    },
    {
      "anonymous": false,
      "inputs": [
        {
          "indexed": true,
          "internalType": "address",
          "name": "previousOwner",
          "type": "address"
        },
        {
          "indexed": true,
          "internalType": "address",
          "name": "newOwner",
          "type": "address"
        }
      ],
      "name": "OwnershipTransferred",
      "type": "event"
    },
    {
      "anonymous": false,
      "inputs": [
        {
          "indexed": false,
          "internalType": "address",
          "name": "",
          "type": "address"
        },
        {
          "indexed": false,
          "internalType": "uint256",
          "name": "",
          "type": "uint256"
        }
      ],
      "name": "depositEvent",
      "type": "event"
    },
    {
      "anonymous": false,
      "inputs": [
        {
          "indexed": false,
          "internalType": "address",
          "name": "",
          "type": "address"
        },
        {
          "indexed": false,
          "internalType": "bool",
          "name": "",
          "type": "bool"
        },
        {
          "indexed": false,
          "internalType": "uint256",
          "name": "",
          "type": "uint256"
        }
      ],
      "name": "pauseEvent",
      "type": "event"
    },
    {
      "anonymous": false,
      "inputs": [
        {
          "indexed": false,
          "internalType": "address",
          "name": "",
          "type": "address"
        },
        {
          "indexed": false,
          "internalType": "uint256",
          "name": "",
          "type": "uint256"
        },
        {
          "indexed": false,
          "internalType": "uint256",
          "name": "",
          "type": "uint256"
        }
      ],
      "name": "rewardClaimEvent",
      "type": "event"
    },
    {
      "anonymous": false,
      "inputs": [
        {
          "indexed": false,
          "internalType": "address",
          "name": "",
          "type": "address"
        },
        {
          "indexed": false,
          "internalType": "uint256",
          "name": "",
          "type": "uint256"
        }
      ],
      "name": "withdrawEvent",
      "type": "event"
    },
    {
      "inputs": [],
      "name": "getCurrentIndex",
      "outputs": [
        {
          "internalType": "uint256",
          "name": "",
          "type": "uint256"
        }
      ],
      "stateMutability": "view",
      "type": "function"
    },
    {
      "inputs": [
        {
          "internalType": "uint256",
          "name": "_index",
          "type": "uint256"
        }
      ],
      "name": "getTotalByTime",
      "outputs": [
        {
          "internalType": "uint256",
          "name": "_totalByTime",
          "type": "uint256"
        }
      ],
      "stateMutability": "view",
      "type": "function"
    },
    {
      "inputs": [],
      "name": "getTotalStaking",
      "outputs": [
        {
          "internalType": "uint256",
          "name": "",
          "type": "uint256"
        }
      ],
      "stateMutability": "view",
      "type": "function"
    },
    {
      "inputs": [
        {
          "internalType": "address",
          "name": "_sender",
          "type": "address"
        }
      ],
      "name": "getUnStakingTime",
      "outputs": [
        {
          "internalType": "uint256",
          "name": "_unStakingTime",
          "type": "uint256"
        }
      ],
      "stateMutability": "view",
      "type": "function"
    },
    {
      "inputs": [
        {
          "internalType": "address",
          "name": "_staker",
          "type": "address"
        }
      ],
      "name": "getUserClaimedReward",
      "outputs": [
        {
          "internalType": "uint256",
          "name": "",
          "type": "uint256"
        }
      ],
      "stateMutability": "view",
      "type": "function"
    },
    {
      "inputs": [
        {
          "internalType": "address",
          "name": "_sender",
          "type": "address"
        }
      ],
      "name": "getUserInfo",
      "outputs": [
        {
          "components": [
            {
              "internalType": "uint256",
              "name": "stakingAmount",
              "type": "uint256"
            },
            {
              "internalType": "uint256",
              "name": "calReward",
              "type": "uint256"
            },
            {
              "internalType": "uint256",
              "name": "claimedReward",
              "type": "uint256"
            },
            {
              "internalType": "uint256",
              "name": "indexByTime",
              "type": "uint256"
            },
            {
              "internalType": "uint256",
              "name": "theStakingTime",
              "type": "uint256"
            }
          ],
          "internalType": "struct IStaking.UserInfo",
          "name": "",
          "type": "tuple"
        }
      ],
      "stateMutability": "view",
      "type": "function"
    },
    {
      "inputs": [
        {
          "internalType": "address",
          "name": "_staker",
          "type": "address"
        }
      ],
      "name": "getUserReward",
      "outputs": [
        {
          "internalType": "uint256",
          "name": "",
          "type": "uint256"
        }
      ],
      "stateMutability": "view",
      "type": "function"
    },
    {
      "inputs": [
        {
          "internalType": "address",
          "name": "_staker",
          "type": "address"
        }
      ],
      "name": "getUserStakingAmount",
      "outputs": [
        {
          "internalType": "uint256",
          "name": "",
          "type": "uint256"
        }
      ],
      "stateMutability": "view",
      "type": "function"
    },
    {
      "inputs": [
        {
          "internalType": "address",
          "name": "_staker",
          "type": "address"
        },
        {
          "internalType": "uint256",
          "name": "_index",
          "type": "uint256"
        }
      ],
      "name": "getUserStakingByTime",
      "outputs": [
        {
          "internalType": "uint256",
          "name": "",
          "type": "uint256"
        }
      ],
      "stateMutability": "view",
      "type": "function"
    },
    {
      "inputs": [],
      "name": "owner",
      "outputs": [
        {
          "internalType": "address",
          "name": "",
          "type": "address"
        }
      ],
      "stateMutability": "view",
      "type": "function"
    },
    {
      "inputs": [],
      "name": "renounceOwnership",
      "outputs": [],
      "stateMutability": "nonpayable",
      "type": "function"
    },
    {
      "inputs": [],
      "name": "rewardClaim",
      "outputs": [],
      "stateMutability": "nonpayable",
      "type": "function"
    },
    {
      "inputs": [
        {
          "internalType": "bool",
          "name": "_enabled",
          "type": "bool"
        }
      ],
      "name": "setPause",
      "outputs": [],
      "stateMutability": "nonpayable",
      "type": "function"
    },
    {
      "inputs": [
        {
          "internalType": "uint256",
          "name": "_amount",
          "type": "uint256"
        }
      ],
      "name": "staking",
      "outputs": [],
      "stateMutability": "nonpayable",
      "type": "function"
    },
    {
      "inputs": [
        {
          "internalType": "address",
          "name": "newOwner",
          "type": "address"
        }
      ],
      "name": "transferOwnership",
      "outputs": [],
      "stateMutability": "nonpayable",
      "type": "function"
    },
    {
      "inputs": [
        {
          "internalType": "uint256",
          "name": "_amount",
          "type": "uint256"
        }
      ],
      "name": "unStaking",
      "outputs": [],
      "stateMutability": "nonpayable",
      "type": "function"
    }
  ],
  "bytecode": "0x60c06040523480156200001157600080fd5b50604051620018ed380380620018ed833981016040819052620000349162000101565b600160009081556001600160a01b03821660805281908060b468056bc75e2d631000004260016003805460ff19166001838181111562000078576200007862000133565b0217905550600493909355600591909155600655600755506200009d905033620000af565b6001600160a01b031660a05262000149565b600b80546001600160a01b038381166001600160a01b0319831681179093556040519116919082907f8be0079c531659141344cd1fd0a4f28419497f9722a3daafe3b4186f6b6457e090600090a35050565b6000602082840312156200011457600080fd5b81516001600160a01b03811681146200012c57600080fd5b9392505050565b634e487b7160e01b600052602160045260246000fd5b60805160a0516117736200017a60003960005050600081816106b601528181610ad90152610ebd01526117736000f3fe608060405234801561001057600080fd5b50600436106101005760003560e01c80636409f92111610097578063bedb86fb11610066578063bedb86fb1461024b578063c379e2871461025e578063c75ebb8214610271578063f2fde38b1461028457600080fd5b80636409f9211461020d578063715018a61461021557806386f43a411461021d5780638da5cb5b1461023057600080fd5b80634535aed5116100d35780634535aed514610171578063522c7e081461019d57806358d57545146101b05780636386c1c7146101b857600080fd5b80630d9005ae146101055780631aee9266146101205780631dbb2a22146101335780632d993bc514610148575b600080fd5b61010d610297565b6040519081526020015b60405180910390f35b61010d61012e366004611534565b6102a6565b610146610141366004611534565b6102e8565b005b61010d610156366004611564565b6001600160a01b031660009081526008602052604090205490565b61010d61017f366004611564565b6001600160a01b031660009081526008602052604090206002015490565b61010d6101ab366004611564565b610328565b60015461010d565b6101cb6101c6366004611564565b610371565b6040516101179190600060a082019050825182526020830151602083015260408301516040830152606083015160608301526080830151608083015292915050565b6101466103fb565b610146610430565b61014661022b366004611534565b610442565b600b546040516001600160a01b039091168152602001610117565b610146610259366004611594565b610476565b61010d61026c3660046115b1565b6104df565b61010d61027f366004611564565b61050a565b610146610292366004611564565b610574565b60006102a16105ea565b905090565b60008181526009602052604081205481036102d257505060025460009081526009602052604090205490565b506000818152600960205260409020545b919050565b600b54600160a01b900460ff161561031b5760405162461bcd60e51b8152600401610312906115db565b60405180910390fd5b6103253382610608565b50565b6001600160a01b038116600090815260086020526040812060040154810361035257506000919050565b506001600160a01b031660009081526008602052604090206004015490565b6103a36040518060a0016040528060008152602001600081526020016000815260200160008152602001600081525090565b506001600160a01b0316600090815260086020908152604091829020825160a0810184528154815260018201549281019290925260028101549282019290925260038201546060820152600490910154608082015290565b600b54600160a01b900460ff16156104255760405162461bcd60e51b8152600401610312906115db565b61042e3361093e565b565b610438610b53565b61042e6000610bad565b600b54600160a01b900460ff161561046c5760405162461bcd60e51b8152600401610312906115db565b6103253382610bff565b61047e610b53565b600b805460ff60a01b1916600160a01b8315159081029190911790915560408051338152602081019290925242908201527f2a37afe8f0b839a99e318a506c99271f063ee7ff448923028a472fd5f337b6029060600160405180910390a150565b6001600160a01b0382166000908152600a602090815260408083208484529091529020545b92915050565b6005546001600160a01b03821660009081526008602052604081206004015490914291610537919061161f565b111561054557506000919050565b6001600160a01b03821660009081526008602052604090206001015461056a83610f31565b610504919061161f565b61057c610b53565b6001600160a01b0381166105e15760405162461bcd60e51b815260206004820152602660248201527f4f776e61626c653a206e6577206f776e657220697320746865207a65726f206160448201526564647265737360d01b6064820152608401610312565b61032581610bad565b600554600754600091906105fe9042611632565b6102a19190611645565b610610610f65565b6007544210156106625760405162461bcd60e51b815260206004820152601d60248201527f49742773206e6f742074696d6520666f72205374616b696e67207965740000006044820152606401610312565b600081116106a95760405162461bcd60e51b815260206004820152601460248201527339ba30b5b4b7339030b6b7bab73a1032b93937b960611b6044820152606401610312565b6106de6001600160a01b037f000000000000000000000000000000000000000000000000000000000000000016833084610fbe565b6001600160a01b038216600090815260086020526040902054156107bb57600061070783610f31565b90508015610740576001600160a01b0383166000908152600860205260408120600101805483929061073a90849061161f565b90915550505b6001600160a01b0383166000908152600860205260409020600401546002906107699042611632565b6107739190611645565b6001600160a01b038416600090815260086020526040902060040154610799919061161f565b6001600160a01b038416600090815260086020526040902060040155506107db565b6001600160a01b0382166000908152600860205260409020426004909101555b600960006107e76105ea565b81526020019081526020016000205460000361081e576001546009600061080c6105ea565b81526020810191909152604001600020555b6108266105ea565b6001600160a01b0383166000908152600860205260408120600381019290925581548392919061085790849061161f565b90915550506001600160a01b038216600090815260086020908152604080832054600a909252822090916108896105ea565b81526020019081526020016000208190555080600160008282546108ad919061161f565b90915550819050600960006108c06105ea565b815260200190815260200160002060008282546108dd919061161f565b909155506108eb90506105ea565b600255604080516001600160a01b0384168152602081018390527f47170ad76c9bbdb15dfbafd993321119023982de922af38d00684afaac15b8ea910160405180910390a161093a6001600055565b5050565b610946610f65565b6005546001600160a01b03821660009081526008602052604090206004015461096f919061161f565b4210156109c85760405162461bcd60e51b815260206004820152602160248201527f49742773206e6f742074696d6520666f7220726577617264436c61696d2079656044820152601d60fa1b6064820152608401610312565b60006109d382610f31565b90508015610a2b576109e36105ea565b6001600160a01b038316600090815260086020908152604080832060038101949094559254600a90915291812090610a196105ea565b81526020810191909152604001600020555b6001600160a01b038216600090815260086020526040902060010154610a51908261161f565b905060008111610a945760405162461bcd60e51b815260206004820152600e60248201526d726577617264206973207a65726f60901b6044820152606401610312565b6001600160a01b0382166000908152600860205260408120600181018290556002018054839290610ac690849061161f565b90915550610b0090506001600160a01b037f000000000000000000000000000000000000000000000000000000000000000016838361102f565b604080516001600160a01b038416815260208101839052428183015290517f51730a1d9334940951b5fce420330429cb0e33a25972c4ce8019419fe0d02dd39181900360600190a1506103256001600055565b600b546001600160a01b0316331461042e5760405162461bcd60e51b815260206004820181905260248201527f4f776e61626c653a2063616c6c6572206973206e6f7420746865206f776e65726044820152606401610312565b600b80546001600160a01b038381166001600160a01b0319831681179093556040519116919082907f8be0079c531659141344cd1fd0a4f28419497f9722a3daafe3b4186f6b6457e090600090a35050565b610c07610f65565b6001600160a01b038216600090815260086020526040902054811115610c895760405162461bcd60e51b815260206004820152603160248201527f756e7374616b696e6720616d6f756e74206d757374206265206d6f7265207468604482015270185b881c995c5d595cdd08185b5bdd5b9d607a1b6064820152608401610312565b6005546001600160a01b038316600090815260086020526040902060040154610cb2919061161f565b421015610d015760405162461bcd60e51b815260206004820152601f60248201527f49742773206e6f742074696d6520666f7220756e5374616b696e6720796574006044820152606401610312565b6000610d0c83610f31565b905060096000610d1a6105ea565b815260200190815260200160002054600003610d515760015460096000610d3f6105ea565b81526020810191909152604001600020555b6001600160a01b03831660009081526008602052604081208054849290610d79908490611632565b90915550610d8790506105ea565b6001600160a01b03841660009081526008602052604081206003019190915560018054849290610db8908490611632565b9091555082905060096000610dcb6105ea565b81526020019081526020016000206000828254610de89190611632565b90915550506001600160a01b038316600090815260086020908152604080832054600a90925282209091610e1a6105ea565b8152602001908152602001600020819055508060086000856001600160a01b03166001600160a01b031681526020019081526020016000206001016000828254610e64919061161f565b90915550506001600160a01b0383166000908152600860205260408120549003610ea5576001600160a01b0383166000908152600860205260408120600401555b610ead6105ea565b600255610ee46001600160a01b037f000000000000000000000000000000000000000000000000000000000000000016848461102f565b604080516001600160a01b0385168152602081018490527f87d5f4772963d1f9b76047158b4ae97c420a1b3bff2a746c828beffd9e7c3e26910160405180910390a15061093a6001600055565b60008060035460ff166001811115610f4b57610f4b611667565b14610f5e57610f5982611064565b610504565b6000610504565b600260005403610fb75760405162461bcd60e51b815260206004820152601f60248201527f5265656e7472616e637947756172643a207265656e7472616e742063616c6c006044820152606401610312565b6002600055565b6040516001600160a01b03808516602483015283166044820152606481018290526110299085906323b872dd60e01b906084015b60408051601f198184030181529190526020810180516001600160e01b03166001600160e01b0319909316929092179091526112cf565b50505050565b6040516001600160a01b03831660248201526044810182905261105f90849063a9059cbb60e01b90606401610ff2565b505050565b60008061106f6105ea565b905080158061109857506001600160a01b03831660009081526008602052604090206003015481145b156110a65750600092915050565b6001600160a01b0383166000908152600a602090815260408083206008835281842060030154845290915281205490036110e35750600092915050565b6001600160a01b03831660009081526008602090815260408083206003015483526009909152812054810361112a5750600254600090815260096020526040902054611155565b506001600160a01b038316600090815260086020908152604080832060030154835260099091529020545b6001600160a01b0384166000818152600a602090815260408083206008808452828520600301548086529184529184205494845291525b848110156112c5576001600160a01b0387166000908152600860205260409020600301548103611203576006546001600160a01b0388166000908152600a6020908152604080832085845290915290205485916111e89161167d565b6111f29190611645565b6111fc908361161f565b91506112b3565b6000818152600960205260408120548190810361122257859150611234565b60008381526009602052604090205491505b6001600160a01b0389166000908152600a60209081526040808320868452909152812054900361126557508361128b565b506001600160a01b0388166000908152600a602090815260408083208584529091529020545b600654829061129a908361167d565b6112a49190611645565b6112ae908561161f565b935050505b806112bd81611694565b91505061118c565b5095945050505050565b6000611324826040518060400160405280602081526020017f5361666545524332303a206c6f772d6c6576656c2063616c6c206661696c6564815250856001600160a01b03166113a49092919063ffffffff16565b905080516000148061134557508080602001905181019061134591906116ad565b61105f5760405162461bcd60e51b815260206004820152602a60248201527f5361666545524332303a204552433230206f7065726174696f6e20646964206e6044820152691bdd081cdd58d8d9595960b21b6064820152608401610312565b60606113b384846000856113bb565b949350505050565b60608247101561141c5760405162461bcd60e51b815260206004820152602660248201527f416464726573733a20696e73756666696369656e742062616c616e636520666f6044820152651c8818d85b1b60d21b6064820152608401610312565b600080866001600160a01b0316858760405161143891906116ee565b60006040518083038185875af1925050503d8060008114611475576040519150601f19603f3d011682016040523d82523d6000602084013e61147a565b606091505b509150915061148b87838387611496565b979650505050505050565b606083156115055782516000036114fe576001600160a01b0385163b6114fe5760405162461bcd60e51b815260206004820152601d60248201527f416464726573733a2063616c6c20746f206e6f6e2d636f6e74726163740000006044820152606401610312565b50816113b3565b6113b3838381511561151a5781518083602001fd5b8060405162461bcd60e51b8152600401610312919061170a565b60006020828403121561154657600080fd5b5035919050565b80356001600160a01b03811681146102e357600080fd5b60006020828403121561157657600080fd5b61157f8261154d565b9392505050565b801515811461032557600080fd5b6000602082840312156115a657600080fd5b813561157f81611586565b600080604083850312156115c457600080fd5b6115cd8361154d565b946020939093013593505050565b60208082526014908201527343757272656e742070617573652073746174757360601b604082015260600190565b634e487b7160e01b600052601160045260246000fd5b8082018082111561050457610504611609565b8181038181111561050457610504611609565b60008261166257634e487b7160e01b600052601260045260246000fd5b500490565b634e487b7160e01b600052602160045260246000fd5b808202811582820484141761050457610504611609565b6000600182016116a6576116a6611609565b5060010190565b6000602082840312156116bf57600080fd5b815161157f81611586565b60005b838110156116e55781810151838201526020016116cd565b50506000910152565b600082516117008184602087016116ca565b9190910192915050565b60208152600082518060208401526117298160408501602087016116ca565b601f01601f1916919091016040019291505056fea2646970667358221220cd9e088bbf4ab1ebd5d5918e237f0fac2f7b874dd3a6e3430e1e72ef99162e6d64736f6c63430008110033",
  "linkReferences": {},
  "deployedLinkReferences": {}
}